H1UTEM010801SW0030082023
0630501046023228A   3749647    NORAIDA BINTI MOHAMAD NOH               1000000000000015               
0000000000000000A   0398841    LELA BINTI OMAR                         5000000000000020               
0630501045179777A   3661893    AHMAD FADZLI NIZAM BIN ABDUL RAHMAN     1000000000000021               
0630501008990000A   3382445    AZHAR BIN MOHD SALLEH                   2000000000000022               
0000000000000000A   3511032    NUR AZRIAH BINTI AMIR                   1000000000000024               
0630501045179839A   3779298    SABARINA BINTI ABDULLAH                 2000000000000025               
0630501016752263A   2651870    BAKRI BIN ABU BAKAR                     8000000000000026               
0630501062633543-              ROSNAH BINTI AB MAJID                   3100000000000044               
0630501011848124A   3044931    MUHAMMAD SYAHRIR BIN JOHAL              1000000000000045               
0630501032793473A   1572841    AHMAD SHAARIZAN BIN SHAARANI            1000000000000046               
0630501045021796A   1975498    MASLITA BINTI ABD AZIZ                  1000000000000047               
0080501000010391-              AZLINAH BINTI AJIS                      1200000000000048               
0630501045179827A   3679586    NURAIDA BINTI ISMAIL                    6000000000000055               
0630501008992375A   3045717    AHMAD BIN ABU BAKAR                     5000000000000057               
0630501045179841A   2336383    WAN AMIRRUDDIN BIN WAN MOHD             5000000000000058               
0630501045179803A   3781718    MIMI RAHAYU BINTI HAMDIN                1100000000000060               
0630501046059313A   3493401    ALIDAH BINTI MOHD ALI                   5000000000000063               
0630501019225402A   3780591    NORFAHRIZAN BINTI JUHARI                4000000000000066               
0080201000165138A   1410390    ZUHAIMI BIN ALIAS                       7000000000000076               
0630501054082220A   3332424    MOHD NIZAM BIN MAZLAN                   3000000000000077               
0630501007350622A   1408376    ANIZA BINTI OTHMAN                      3500000000000078               
0630501050096517A   2583409    ANISAH BINTI KASIM                      1000000000000083               
0630501051020882A   3513987    NORHAZLENA BINTI SABTU                  1300000000000085               
0630501052823342A   3155272    ZULKARNAEN BIN MAHAT                    5000000000000086               
0630501063975683-              HADZLI ZUL BIN HAMRAN                   1000000000000093               
0630501011092100A   2987859    SITI HUZAIMAH BINTI HUSIN               5000000000000094               
0630501015180877A   2892085    RAIS BIN MAHAT                          2000000000000096               
0630501012062366A   3332058    HAZILAH BINTI HAMID                     2500000000000098               
0630501051060275-              ZAKIAH BINTI AYOP                       5000000000000099               
0630501058554155A   3261090    RAFEDAH BINTI SAJADI                    5000000000000101               
0630501045179791-              JURIFA BINTI MAT LAZI                   1600000000000102               
0630501043515564A   3564339    ZAIHASRAF BIN ZAKARIA                   7000000000000103               
0630501008567730A   1106813    MOHAMAD BIN MINHAT                      8900000000000107               
0630501044680868A   0783925    ABDUL RAZAK BIN HUSSAIN                 2600000000000113               
0630501045179789A   3863891    FAUZURA BINTI MOHD SALLEH               5000000000000118               
0630501016885120A   0649820    RAZIFAH BINTI MAT RAIS                  2000000000000124               
0630501050300651A   1701653    MOHD ZULKEFLI BIN SELAMAT               1300000000000129               
0630501012055201A   2735599    SHAHRULANUAR BIN MOHAMED                1000000000000131               
0630501007367180A   1664404    MARSITA BINTI MOHD TAIB                 2500000000000133               
0630501040878372A   2212515    SUHAILA BINTI SALLEH                    4000000000000135               
0630501059607141A   1173734    MUSA BIN ABDULLAH                       1150000000000139               
0630501015388986-              MOHAMAD ROSLAN BIN SABTU                4000000000000140               
0000000000000000-              SYARULNAZIAH BINTI ANAWAR               3000000000000142               
0630501031619210-              NOOR AZIAN BINTI MAHMOOD                6000000000000148               
0630501061307709A   3515344    MUHAMMAD SHUHAIMI BIN ABU BAKAR         3500000000000152               
0630501039210568A   3751254    MOHD RADUAN BIN KHALIL                  5000000000000153               
0630501045180889-              SITI ZURAH BINTI MOHD NASIR             3000000000000154               
0000000000000000A   1737704    HASSAN BIN ATTAN                        1000000000000157               
0630501008595899A   1221326    ROSIDAH BINTI JAAFAR                    4000000000000162               
0630501018668485A   2395707    ROSLEEN BINTI ABDUL SAMAD               1000000000000172               
0630501013320647A   2393756    SYED NAJIB BIN SYED SALIM               2500000000000174               
0630501019208164-              NAZARINA BINTI ABDUL NASSER             3400000000000176               
0630501039468520A   2188704    HAMBALI BIN AREP @ ARIFF                2600000000000178               
0630501019185643A   3511159    AZEAN BINTI AHMAD                       5500000000000180               
0630501009955577A   3678256    MAASPALIZA BINTI AZRI                   2500000000000184               
0000000000000000-              NOOR IZWANNI BINTI AMIL                 7500000000000186               
0630501058667764A   3273738    SAZELIN BINTI ARIF                      1300000000000190               
0630501015115324A   3722255    MUHAMMAD ZAHIR BIN HASSAN               1500000000000192               
0000000000000000A   2846111    ZARINA BINTI BAHARUDIN ZAMANI           4000000000000196               
06305010175793035800310       FAUZIYAH BINTI SALEHUDDIN               5000000000000199               
0630501012059028A   3514057    RASIDA BINTI ABU BAKAR                  2000000000000203               
0630501058724215-              HAYANI BINTI ABU YAMIN                  5000000000000206               
0630501015315806-              MOHD HANAFI BIN HASSAN                  5000000000000207               
0630501056650601A   2467278    NOOR AZILAH BINTI DRAMAN@MUDA           6000000000000210               
0630501033609388A   3383696    ZAMANI BIN SALLEH                       1500000000000211               
0080101000007622A   3511743    RINA ARIANTY BINTI HASHIM               5200000000000212               
0080101000053701-              RAPIZA BINTI ISHAK                      3200000000000213               
06305010476408597346288       FARIDAH BINTI AHMAD                     3000000000000215               
0630501059987327-              MARHAMAH BINTI AHMAD                    1000000000000224               
0080101000060842-              ARMAN BIN MOHAMMAD                      1070000000000225               
0000000000000000-              MI AZIAN BINTI AB.KARIM                 2000000000000226               
0630501031840661-              NORAZLIN BINTI MOHAMMED                 1500000000000228               
0630501045182809-              ZAINUDIN BIN SALLEH                     5000000000000234               
0630501057441493A   1642297    SARIMAN BIN AJIS                        6000000000000239               
0630501045182518A   2312622    MAZNE BINTI JA'AFFAR                    8000000000000241               
0630501059103604-              HAZRIL BIN ABDUL WAHAB                  5000000000000244               
0630501046843608A   0284747    MOHAMED SUHAIMI BIN ABDULLAH            3000000000000245               
0630501012280380A   3867080    AMIR SYARIFUDDIN BIN KASIM              5000000000000248               
0630501056109364-              SAIFULLAH BIN SALAM                     1000000000000250               
0630501050710320A   3367928    AZLINDA BINTI MOHD YUNUS                6000000000000257               
0630501059102959A   2651151    MOHD NIZAM BIN PAVEL                    4000000000000258               
0630501038497708A   2676008    AZLINA BINTI AMZAH                      5000000000000264               
0630501030968706A   1409017    ZULHAIRI BIN OTHMAN                     4200000000000266               
0630501062955314A   3591637    KHAIRULNIZAM BIN A. RAHMAN              2000000000000269               
0630501007684147A   3852209    IDAMURNI BINTI ISMAIL                   3000000000000273               
0630501057440584-              ANIS SUHAILA BINTI MOHD ZAIN            7000000000000279               
0000000000000000-              ASJUFRI BIN MUHAJIR                     1600000000000280               
0630502006237352-              NURUL AKMAR BINTI EMRAN                 2000000000000282               
0630501004511400A   3514153    SYAHIRA BINTI MOHD ADNAN                7000000000000283               
0630501059682353A   3133707    NORAIN BINTI ISMAIL                     2000000000000287               
0000000000000000-              ZAHRIAH BINTI OTHMAN                    6000000000000290               
0630501016487280-              ZULKIFLEE BIN MUSLIM                    5000000000000291               
0630501007221608A   3777122    NUR IZAN SYAHRIAH BINTI HUSSEIN         1500000000000296               
0080101000535624-              NURULFAJAR BIN ABD MANAP                3000000000000306               
0630501045147563A   3316037    ASLINDA BINTI SUANDI                    1500000000000311               
0630501016314940A   3773776    MD FAHMI BIN ABD SAMAD @ MAHMOOD        5000000000000312               
0080601000026626A   3297984    SARMAN BIN BASRI                        2000000000000314               
0630501008609131A   0874280    MOHD RIZAL BIN SALLEH                   1000000000000318               
0630501005941856A   0876665    NOORNAHAR BINTI AKASHAH                 1000000000000321               
0630501063842916A   3678052    NORFAZLIZAH BINTI MAT SAPAR             3000000000000326               
0000000000000000-              SANI IRWAN BIN SALIM                    1000000000000329               
0630501013994791-              FARIZ BIN ALI @ IBRAHIM                 3000000000000331               
0630501059406519-              NORHASHIMAH BINTI MOHD SAAD             5000000000000332               
0630501034298886-              AIDA FAZLIANA BINTI ABDUL KADIR         1500000000000334               
0630501010633379A   1979453    ZOLKARNAIN BIN MARJOM                   4900000000000335               
0088801000001002-              ANI BINTI JAFFRI                        1400000000000343               
0630501062827807-              ABDUL RAHIM BIN ABDULLAH                1000000000000345               
0630501016793085-              FAZROL BIN OTHMAN                       1000000000000352               
0630501047731548-              NOOR HAFIZA BINTI OTHMAN                6500000000000353               
0630501057393707-              SYARIDAN BIN SHAARANI @ TAN             1000000000000354               
0630501061758049A   3332577    NOR FAZILAH BINTI ABDUL HAMID           3300000000000355               
0630501052928645A   3781204    HANIZA BINTI NAHAR                      1800000000000362               
0080501000001099-              SHARIFAH AZIMAH BINTI SYED AZIZ         3500000000000363               
0630501034457949-              HAZURA BINTI HAROON                     3000000000000364               
0080301000263889-              MOHD SHAHRIL IZUAN BIN MOHD ZIN         1000000000000369               
0080101000004601-              NORERNI BINTI A. RAHMAN                 1000000000000370               
0630501058269504A   3781766    ZAIRUDIN BIN SAID                       5000000000000371               
0000000000000000A   1206012    SUHAIMI BIN BASRAH                      1000000000000373               
0080501000000204A   3512759    ROZINAH BINTI YAKOP                     1000000000000374               
0630501046022662A   2960147    AZAH KAMILAH BINTI DRAMAN @ MUDA        7000000000000375               
0630501014023399A   3343582    MOHD HAIZAL BIN MOHD HUSIN              5000000000000382               
0080101000561900-              NORIHAN BINTI ABU NAWAR                 6000000000000385               
0000000000000000A   3780867    ERNIE BINTI MAT TOKIT                   9000000000000386               
0080501000007612-              ZAINARIA BINTI SURIP                    1600000000000388               
0630501059455621A   3749843    ZAIRULAZHA BIN ZAINAL                   6500000000000395               
0000000000000000A   0750550    SAHAR BIN SALEHAN                       2000000000000398               
0630501058034189-              SABRINA BINTI AHMAD                     2000000000000402               
0630501012128349A   3678402    TEH ZANARIAH BINTI MOHD RAUS            2000000000000414               
0630501042763748A   3843541    SUHAIMI BIN MISHA                       8500000000000420               
0000000000000000-              ZUHANA BINTI JOHARI                     3500000000000435               
0080101000015658A   3514090    MARLIZA BINTI RAMLY                     4000000000000448               
0000000000000000A   0981486    ABDUL AZIZ BIN ABU BAKAR                3000000000000451               
0000000000000000A   3329249    ASSHARI BIN ABBAS                       2000000000000455               
06305010085733657266789       ABDUL MAJID BIN ISNIN                   4100000000000457               
0630501060773806-              AZURAH BINTI AHMAD                      3000000000000460               
0000000000000000A   1022875    SHAHRIN BIN SAHIB @ SAHIBUDDIN          1500000000000463               
0630501017858686A   2843469    FAUZIAH BINTI KASMIN                    2000000000000467               
0630501058783163A   3816987    SITI AZIRAH BINTI ASMAI                 2500000000000472               
0630501047610715A   1713047    FAAIZAH BINTI SHAHBODIN                 3000000000000477               
0630501064027562-              NOOR MANISHA BINTI MAHAT                3000000000000482               
0080501000000406A   2888049    ABDUL RAHMAN ROSLI BIN MAHMOOD          2000000000000483               
0000000000000000A   2505310    MASLAN BIN ZAINON                       1000000000000486               
0630501017005028-              MOHD HAFIZ BIN ZAKARIA                  5000000000000487               
0000000000000000A   3046031    ERNAWATIE BINTI MD SAH                  3300000000000488               
0000000000000000A   3822752    MUHAMAD SOPIAN BIN BAHAROM              2000000000000489               
0080301000006497-              AHMAD AIZAN BIN ZULKEFLE                5000000000000491               
0080101000001996-              AZIMATON BINTI AHMAD                    1000000000000503               
0630501056646924-              AHMAD AFFENDAY BIN MOHAMED SANI         3600000000000505               
0000000000000000A   3780253    NAZARUDDIN BIN MD YUNUS                 2500000000000506               
0000000000000000-              NORASIKIN BINTI MD ISA                  1100000000000510               
0000000000000000-              MOHD YAZID BIN ABU                      5000000000000512               
0080101000051160-              MOHD RADZIF BIN ABD HAMID               1150000000000514               
0000000000000000-              SHAIFULIZAM BIN ISHAK                   1000000000000516               
0630501035238152-              NORHAFIZAH BINTI ISHAK                  1000000000000517               
0630501031366697-              MUHAMMAD SYAHRIZAN BIN JOHAL            7000000000000518               
0630501011099785-              ZURAIDA BINTI ABDUL HADI                3750000000000519               
0630501015388618-              NORZALINA BINTI ANUAR                   3600000000000521               
0080101000008999-              ASNAN BIN ABAS                          1500000000000522               
0000000000000000-              NORFAEZAH BINTI MOHD TARMIZI            3000000000000525               
0630501063456436-              IRASTIKA MURNI BINTI SELAMAT            1400000000000526               
0000000000000000-              MOHD KHAIRUL AKMAL BIN MOHD NOOR        1200000000000528               
0630501048316893-              NORLIZAWATI BINTI AB RAHAMAN            5000000000000529               
0630501046726538-              MUHAMMAD HELMY BIN ELIAS                3500000000000531               
0080301000009125-              HAIRMI BIN OTHMAN                       4000000000000534               
0000000000000000-              ZURAIDAH BINTI ABDULLAH                 1000000000000537               
0630501016708257A   3381318    RUSNI BINTI HASAN                       2000000000000538               
0000000000000000A   2892372    MD FAUZA BIN NAHRAWI                    5000000000000541               
0080501000009963-              RAINAH BINTI ISMAIL                     2000000000000552               
0630501046406145A   1409662    ABD AZIZ BIN MUSTAPA                    3800000000000565               
0000000000000000A   2490446    MAHADI BIN ABU HASSAN                   5000000000000568               
0000000000000000A   0594390    MARSITAH BINTI ABU BAKAR                2500000000000573               
0630501008604099A   0925042    ZURAIDA BINTI MOHAMED TAIB              5000000000000577               
0090401000088432-              AZHAR SHAH BIN ABU HASSAN               3000000000000579               
0000000000000000A   2068214    ZULKIFLI BIN MOHD ROSLI                 7000000000000585               
0630501056106572-              NURHAYATI BINTI MOHD SHARIFF            2200000000000590               
0630501034665534-              FAIZAL AZMIR BIN ABDUL AZIZ             1000000000000591               
0630501008950252A   2020427    HAZLEEN BINTI HJ. KAHARUDIN             1000000000000592               
0630501016704325-              RAFIDAH BINTI KASIM                     1000000000000593               
0000000000000000A   3094714    HAIRUL NIZAM BIN DAUD                   1000000000000603               
0630501058036011-              SAHARUDIN BIN PUTEH                     4200000000000604               
0630501061307610A   3415590    AZMI BIN ZAKARIA                        5000000000000605               
0000000000000000A   1666294    RAPIDAH BINTI MAZLAN                    3500000000000608               
063050100622944072011104      RIDZUAN BIN AHMAD                       1000000000000609               
0630501011308543A   1318473    ABDUL HALIM BIN DAHALAN                 1900000000000614               
0630501062479597-              NORHAFIZAH BINTI MD YUSOH               7000000000000618               
0630502035238365-              ROHANA BINTI HASHIM                     6000000000000623               
0630501007369023A   2970419    MOHD HANAPIAH BIN MD LIP                5500000000000625               
0000000000000000A   2505725    SITI SALWAH BINTI AHMAD                 8000000000000626               
0630501055249153A   3272703    ELIA ERWANI BINTI HASSAN                3000000000000628               
0000000000000000A   2870272    NAZRULAZHAR BIN BAHAMAN                 1000000000000629               
0630501051786094-              SAHRIL BIN BAHAR                        8500000000000632               
0630502016797306-              NOR AN BINTI IBRAHIM                    1000000000000637               
0630501011966456A   2963214    NOREFFENDY BIN TAMALDIN                 4000000000000638               
0000000000000000A   2849641    JARIAH BINTI MOHAMAD JUOI               1500000000000641               
0080501000020250A   2828757    NOR AZMMI BIN MASRIPAN                  1000000000000642               
0000000000000000A   0181723    MISDOM BIN LAN                          1000000000000650               
0000000000000000-              KAMARIAH BINTI KAMIS                    5000000000000652               
0630501015312177A   3332195    NOR ATEKAH BINTI OMAR @ MAHMUD          7000000000000653               
0630501038477234-              SURIATI BINTI AKMAL                     4000000000000655               
0630501045657253-              MOHD HENDRA BIN HAIRI                   4500000000000658               
0080101000306249A   3191797    ANITA AKMAR BINTI KAMAROLZAMAN          5000000000000660               
0080401000003573A   1803146    FARID ARAFAT BIN AZIDIN                 8000000000000661               
0630501004556192-              NOR AKRAMIN BIN MOHAMAD                 5000000000000667               
0630501051259897A   3782256    JUNAIDAH BINTI KASIM                    4000000000000668               
0630501059611462A   3572003    ZAHARIAH BINTI MANAP                    3000000000000669               
0630501014753756A   0407369    OTHMAN BIN MOHD                         1200000000000681               
0630501008585930A   2014444    NORHIDA BINTI MD. SAID                  1000000000000684               
0000000000000000-              AZMAN BIN AZAHARI                       2000000000000690               
0630501056656349A   2702440    KAMARUL ARIFFIN BIN ZAKARIA             5000000000000692               
0630501018527008A   2920551    HANISSAH BINTI MOHAMAD @ SULAIMAN       1000000000000693               
0630501012064592A   2416382    NORLIAH BINTI KUDUS                     1400000000000716               
0000000000000000-              SITI AISYA BINTI DAUD                   1300000000000733               
0080101000037068A   3456635    NURAZUA BINTI MOHD. YUSOP               3000000000000737               
0080101000005966-              NUR HAKIMAH BINTI AB AZIZ               1000000000000741               
0000000000000000A   2228893    ROSLI BIN SAID                          2000000000000743               
0630501031803146-              SITI SABRINAH BINTI BUANG               1000000000000747               
0630501012126277-              NOOR AZMAN BIN KAMIS                    3000000000000755               
0630501062952469A   1295589    RAHIM BIN SULAIMAN                      5000000000000756               
0080101000483063-              NOR-ALIZA BINTI IBRAHIM                 1000000000000757               
0080101000006787-              HIDAYAT BIN ZAINUDDIN                   1000000000000758               
0630501045164775A   1046380    ROBIAH BINTI YUSOF                      5000000000000763               
0000000000000000-              MOHD AZMAN BIN ABDULLAH                 1000000000000764               
0000000000000000-              MOHD SANUSI BIN AZMI                    2700000000000765               
0630501036116509A   1702176    SERI RAHAYU BINTI KAMAT                 8000000000000767               
0630501040179116A   3363348    MOHD RIZAL BIN ALKAHARI                 3000000000000768               
0080101000552139A   2578644    MOHD JUZAILA BIN ABD. LATIF             5000000000000769               
0630501059670586-              SYARIFFANOR BINTI HISHAM                1100000000000770               
0630501062478714A   3786129    ROHAYATI BINTI ABDULLAH                 4500000000000775               
06305010153416402611024       AMRAN BIN AB. SANI                      7000000000000780               
0000000000000000A   3735493    ELFA LAILY BINTI MOHD TAHIR@MOHD RAMLI  2000000000000791               
00000000000000007324649       ZAMRE BIN ABD GHANI                     1000000000000795               
0630502019238089-              MASURIYA HANI BINTI AB. WAHID           3100000000000803               
0000000000000000A   2416191    AHMAD RIDZWAN BIN MOHD NOOR             6000000000000804               
0000000000000000-              SHAHROM BIN MOHD SAID                   5000000000000808               
0080101000439927-              AHMAD RHAFAEE BIN SAMSUDIN              1000000000000809               
0000000000000000-              TINTA FIRMANNIKA BIN SELAMAT            1000000000000813               
0630501045144844A   3155100    RATNASAERAH BINTI AZIS                  5000000000000814               
0630501045178906-              NORHAYATI BINTI AHMAD                   5000000000000815               
0000000000000000-              SHAMSUL BIN ABU SAMAH                   3000000000000816               
0630501012126289-              NOORLIZAWATI BINTI KAMIS                4000000000000821               
0000000000000000-              NORLEEN BINTI AZAM                      1000000000000824               
0000000000000000-              ARYANTI BINTI ISMAIL                    1200000000000825               
0630501033553084A   0981029    MOHD ARIS BIN HASAN                     1000000000000830               
0630501061305889-              ALIZA BINTI CHE AMRAN                   1000000000000834               
0000000000000000-              AHMAD ZAKI BIN ABDULLAH                 2500000000000837               
0630501011099633-              ADAWIYAH BINTI MD JANI                  5000000000000838               
0630502006212793-              NUR SYAHIDA BINTI YAHYA                 1900000000000839               
0000000000000000-              AMIR HAFIZUDDIN BIN A. BAKAR            4000000000000840               
0630501014946086A   2353606    MERIAM BINTI A. RAHMAN                  3500000000000844               
0630501061304005-              MUHAMAD ASARI BIN ABDUL RAHIM           1300000000000847               
0630501009934635-              MOHAMAD FUAD BIN JA'AFAR                1000000000000848               
0630501011993021-              SULAINA BINTI KAMARDIN @KAMARUDIN       2500000000000849               
0305010606667470A   3781949    FADZLIN BINTI AMZAH                     8500000000000851               
0630501038491019-              MUHAMMAD FAZLIE BIN RAMLI               2000000000000853               
0630501061306522-              ED. SOFFUAN BIN YUSOF                   2000000000000854               
0000000000000000-              NOORAIDILLAH BINTI RASDI                1000000000000862               
0000000000000000A   1813469    RAZAMAN BIN KASSIM                      1000000000000879               
0630501012064717-              NORALIZA BINTI YUSOF                    5000000000000880               
0811401000000257-              MAZLAN BIN TUMIN                        1000000000000881               
0000000000000000-              MOHD HAIRI BIN MD RAHIM                 1000000000000882               
0630501045149382A   1125901    MAZURA BINTI MUSTAFA                    5000000000000891               
0630501048742297A   3652990    HANAFY BIN YUSOF                        1600000000000899               
0630501037481929-              MOHD SALLEHIN BIN OTHMAN                2100000000000906               
0630501011055031-              SITI FAIRUS BINTI ABU BAKAR             2000000000000918               
0630501016372230-              ERNIHAZRA BINTI MD JOHAN                1000000000000921               
0004010589377525A   2003089    ROZANA BINTI ABU BAKAR                  2000000000000926               
0630501052312499A   2686668    ROHAILI BIN RAMLI                       1600000000000929               
0000000000000000-              FAIZUL AKMAR BIN ABDUL KADIR            1000000000000933               
0000000000000000-              MARIATY BINTI MOHD SAAT                 2500000000000936               
0630501049439465A   1704438    NOR AZAH BINTI ABDUL AZIZ               1000000000000943               
0000000000000000-              MOHD SHAHRIEEL BIN MOHD ARAS            2500000000000949               
0630501009938959-              SYAMIMAH BINTI MOHAMAD HATA             1000000000000951               
0630501015375070-              MOHD AMRI BIN SULAIMAN                  2800000000000956               
0000000000000000A   2205825    AZHAN BIN ABDUL RAUB                    1500000000000959               
0000000000000000-              NORASRA BINTI A.RAHMAN                  8000000000000962               
0630501050677591A   2881954    JASMADI BIN ISMAIL                      5000000000000963               
0000000000000000A   1892812    A.NASORUDDIN BIN MOHAMAD                2000000000000968               
0000000000000000A   3195212    ISMAIL BIN IBRAHIM                      2000000000000969               
0630501063455615A   2657670    ZAWIAH BINTI MAT                        1000000000000970               
0630501010862525A   3412670    HASLINDA BINTI MUSA                     1400000000000971               
0630501036345897A   1547752    HALIZAH BINTI BASIRON                   2000000000000979               
0000000000000000A   2048604    MARIATI BINTI YEM                       2000000000000980               
0630501012212127A   2392945    ROSIDAH BINTI AWANG                     4000000000000983               
0050501000015021-              ZURAIDA BINTI ABAL ABAS                 6000000000000989               
0000000000000000A   2473742    NIK MOHD FARID BIN CHE ZAINAL ABIDIN    5000000000000991               
0630501038528898-              NURIDAWATI BINTI MUSTAFA                4000000000000993               
0630501019507817-              ZALEHA BINTI MUSTAFA                    5000000000000994               
0630501046605630A   2960560    NORAZLINA BINTI ABD RAZAK               3000000000000996               
0080501000009316-              SAHAZATI BINTI MD. ROZALI               2900000000000997               
0630501008981518-              SHARATUL IZAH BINTI SAMSUDIN            8000000000000998               
0630501042549695-              RAFIDAH BINTI HASAN                     2000000000001014               
0630501053773478A   2687338    SITI RAHAYU BINTI SELAMAT               5000000000001017               
0630501061304791-              FATIMAH AL-ZAHRAH BINTI MOHD SA'AT      7000000000001019               
0000000000000000A   3916107    NAZRI BIN MD DAUD                       8000000000001020               
0000000000000000-              HYREIL ANUAR BIN KASDIRIN               3500000000001027               
0630501015150927A   1510240    BURHANUDDIN BIN MOHD ABOOBAIDER         1200000000001029               
0080201000020544A   3329490    MOHD FAIZAL BIN ABDOLLAH                1000000000001036               
0000000000000000A   2844158    SOFFIAN BIN HASHIM                      1000000000001039               
0000000000000000-              ZURAINI BINTI OTHMAN                    1000000000001043               
0000000000000000-              KHADIJAH BINTI WAN MOHD GHAZALI         1500000000001048               
0630501043592191A   2492062    NOR HAFEIZAH BINTI HASSAN               7000000000001054               
06305010134971327423591       AHMAD FAIRUZ BIN MUHAMMAD AMIN          1100000000001062               
0630501008555684A   2414490    MOHD IRMAN BIN RAMLI                    5500000000001075               
0630502005086510-              AMINURRASHID BIN NOORDIN                5000000000001084               
0080101000024311-              ABD SHUKUR BIN JA'AFAR                  4000000000001088               
0630501060815841-              KHAIRUDDIN BIN OSMAN                    4000000000001091               
0630501060760889A   3544721    SAIFULZA BIN ALWI @ SUHAIMI             1000000000001093               
0000000000000000-              FAIRUL AZHAR BIN ABDUL SHUKOR           5600000000001094               
0101101000025742-              MUHD RIDZUAN BIN MANSOR                 6000000000001097               
0000000000000000-              JUNAINAH BINTI SARDI                    1000000000001098               
0630501016951861A   3130469    MOHD RAZALI BIN MOHAMAD SAPIEE          2000000000001101               
0630501012061708-              MOHD FADZLI BIN ABDOLLAH                7000000000001102               
0000000000000000K   0354067    MARIAM MIRI BINTI ABDULLAH              5000000000001103               
0080501000024291-              MOHD ZAID BIN AKOP                      1350000000001110               
0630501047388575A   2251831    AZMAN BIN AWANG TEH                     4000000000001111               
0630501012054289A   2869334    SABRI BIN MOHAMAD SHARIF                1500000000001116               
0630501017054686-              MOHAMAD HAIDIR BIN MASLAN               3000000000001117               
0000000000000000-              MOHAMAD RIDZUAN BIN JAMLI               1500000000001118               
0630501055234237A   3363592    IMRAN BIN MOHD IBRAHIM                  8000000000001120               
0630501012628741-              MUHAMMAD HAFIDZ FAZLI BIN MD FAUADI     2000000000001122               
0630501039119597-              LOKMAN BIN ABDULLAH                     3000000000001123               
0630501042436900-              ZURINA BINTI SHAMSUDIN                  5000000000001124               
0630501048319077A   2695162    NORIHAN BINTI ABDUL HAMID               3000000000001125               
0060301000008150-              MOHD AFZANIZAM BIN MOHD ROSLI           2150000000001129               
0630501008585474A   3153785    NOOR MASLIAN BINTI OTHMAN @ ABDUL HALIP 2000000000001131               
0000000000000000A   2218114    ISMAIL BIN ABU SHAH                     1000000000001132               
0000000000000000-              ISA BIN HALIM                           4200000000001134               
0630501000970772-              MOHAMMAD KAMIL BIN SUED                 2000000000001135               
0630501012756107-              ANIS NIZA BINTI RAMANI                  8000000000001138               
0080101000008633-              MOHD HARY BIN UJANG                     1000000000001139               
0630501014021718-              KYAIRUL AZMI BIN BAHARIN                6500000000001142               
0630501051459518-              SYAFEEZA BINTI AHMAD RADZI              7000000000001145               
0000000000000000-              MAHANUM BINTI MOHD ZAMBERI              1000000000001147               
0080101000012877-              MOHD RODY BIN MOHAMAD ZIN               1000000000001153               
0000000000000000-              RAHIFA BINTI RANOM                      1200000000001160               
0000000000000000-              IRMA WANI BINTI JAMALUDIN               1000000000001169               
0630501050992662-              HAFIZI BIN MOHAMAD                      1000000000001181               
0080101000608939-              FARAH SHAHNAZ BINTI FEROZ               1000000000001182               
0630501037483269-              MOHD RIZUAN BIN BAHARON                 6500000000001184               
0061201000696114-              AZIAH BINTI KHAMIS                      2000000000001188               
0000000000000000-              MOHD KHAIRI BIN MOHD ZAMBRI             4000000000001192               
0000000000000000-              MUHAMMAD SHARIL BIN YAHAYA              3000000000001196               
0000000000000000-              MOHD RIDUAN BIN AHMAD                   1000000000001202               
0630501019257264-              SITI AISAH BINTI MAT JUNOS @ YUNUS      9000000000001206               
0080401000007201-              MOHD ASYADI 'AZAM BIN MOHD ABID         1150000000001217               
0000000000000000-              EMALIANA BINTI KASMURI                  1000000000001218               
0000000000000000-              AMIR BIN ARIS                           4000000000001220               
0000000000000000A   1968107    RUZAIDI BIN ZAMRI                       2500000000001226               
0000000000000000-              MUZALIFAH BINTI MOHD SAID               2000000000001237               
0000000000000000-              MOHD RUSDY BIN YAACOB                   2000000000001252               
0630501038622650-              MOHD ZAKI BIN ABU BAKAR                 6000000000001253               
0000000000000000-              FADZLY BIN NORDIN                       8000000000001258               
0630502019212723-              MOHD KHAIRUL BIN HASSAN                 8000000000001268               
0000000000000000-              MOHD SHAHRIZAN BIN DHAHLAN              2300000000001269               
0630501034127293A   3392659    HASRUL HADI BIN ABU SAMAH               5500000000001270               
0080301000299669-              FADHIL BIN AHMAD                        1000000000001272               
0630501018552982-              MUHAMMAD SYAFIQ BIN SYED MOHAMED        1400000000001274               
0630502038473086-              NORHIDAYAH BINTI MOHAMAD YATIM          1300000000001278               
0630501038785925-              AIMIE NAZMIN BIN AZMI                   3000000000001279               
0630501038444095-              NUR RASHID BIN MAT NURI @ MD DIN        1750000000001284               
0630501033234791-              ZAID @ RADIN ZAID BIN RADIN UMAR        5000000000001289               
0000000000000000-              MOHD HANIF BIN CHE HASAN                3500000000001304               
0630501014345351-              MOHD ZAKI BIN MAS'UD                    5000000000001305               
0000000000000000-              SITI ROHANI BINTI MANAN                 1000000000001320               
0630501016712387A   1545441    AMIR SHARIFUDDIN BIN MOHD YASIN         5000000000001323               
0080101000267098-              AHMAD FITRI BIN ADAM                    2000000000001328               
0080101000021066A   3914518    SITI AISHAH BINTI ABD RAHMAN            4000000000001331               
0080301000005118-              NIK ASMAH BINTI NIK AZIZ                3500000000001335               
0000000000000000-              MOHD FIRDAUS BIN ABU BAKAR              1000000000001340               
0000000000000000-              MOHD HEDZUAN BIN HASBULLAH              2000000000001344               
0080201000165429-              MASLIANA BINTI RAZALI                   1300000000001359               
0000000000000000-              FAIZOL BIN KAMARUL ZAHARI               1000000000001361               
0630501045168706A   3779900    HABIRAFIDI BIN RAMLY                    3250000000001366               
0080101000022851-              SHAMSIAH HASITA BINTI SHAFIE            7000000000001369               
0008031000000177-              SITI SUHAILIN BINTI MOHD SIDEK          1200000000001372               
0000000000000000-              MOHAMED KHAIRY BIN ALI                  5000000000001376               
0000000000000000-              NOOR AZMAN BIN MANSOR                   2000000000001382               
0630501017092602A   3257045    MOHD TAUFIK BIN ABD AZIZ                1000000000001383               
0120101000007998-              SYAHRUL HISHAM BIN MOHAMAD @ ABD RAHMAN 4000000000001386               
0080501000047411-              SITI AMINAH BINTI MD ALI                6000000000001403               
0000000000000000-              NORZURIYAHNI BINTI ABU BAKAR            2000000000001406               
0080501000027175A   3925115    MOHAMAD ZIN BIN MAHMUD                  1800000000001407               
0008040100069230-              SITI FATIMAH BINTI KAMARUDIN            3000000000001410               
0080301000302269-              SITI NURBAIZURA BINTI OMAR              7000000000001412               
0000000000000000A   3341104    SURIYANTY BINTI KASBAN                  3500000000001418               
0000000000000000-              NUR AIN BINTI HASAN                     6000000000001424               
0630501005578114-              MOHD KAMIL ANUAR BIN AKRAM @ JUMMAH     1000000000001427               
0630501016867096-              KHARMIZA BINTI BURHANUDDIN              3200000000001431               
0000000000000000-              NUR A'KASHAH BIN BUHARI                 2500000000001433               
0000000000000000-              SITI ZURIANA BINTI OMAR                 2100000000001437               
0080501000021397-              SITI AISAH BINTI KHADISAH               2700000000001438               
0080301000302257-              MUHAMMAD AZWAN BIN ABDUL KADIR          1400000000001439               
0630501032396391-              ZAIHASRAH BINTI ALIAS                   8000000000001445               
0000000000000000-              NORHAZILINA BINTI BAHARI                2000000000001446               
0000000000000000-              MOHD NUR AZMI BIN NORDIN                2000000000001454               
0000000000000000-              NOOR ASYIKIN BINTI SULAIMAN             2000000000001455               
0110401000015939-              AIDA BINTI SALLEH                       7200000000001459               
0000000000000000-              MOHD ZAMZURI BIN AB RASHID              3000000000001462               
0000000000000000A   3914937    AHMAD HAFIZ BIN MOHD PUAD               8000000000001467               
0000000000000000A   2582398    AZMAN BIN MAT ARIS                      5000000000001468               
0000000000000000A   3516674    RAHIZAH BINTI ABDUL RAHMAN              1000000000001469               
0630501058603026A   3768810    NORHIDAYAH BINTI MOHD ZAINUDIN          2500000000001473               
0100601000236086-              FARA ASHIKIN BINTI ALI                  3000000000001479               
0080101000073416-              NORHASLINDA BINTI HASIM                 2000000000001480               
0630501008500821A   1774439    MOHD ASRI BIN YUSUFF                    3000000000001481               
0630501064428043-              KHAIRUL RAZIK BIN MOHAMAD ISA           1100000000001483               
0630501032531124-              NURDAYANA IZYAN BINTI AHMAD AHSAN       5500000000001484               
0630501012061696-              MOHD RADY BIN AB KARIM                  6000000000001485               
0080501000131503-              MOHD YUHAZRI BIN YAAKOB                 1000000000001489               
0080201000166289-              SITI RAHMAH BINTI SHAMSURI              5000000000001493               
0061201000194029-              FADHLI BIN SYAHRIAL                     3500000000001495               
0630502014822823-              NUR FATIHAH BINTI AZMI                  1000000000001497               
0000000000000000-              MOHD ANAS BIN A'DENAR                   1200000000001499               
0630501052783711-              ZULAIKHA BINTI MD RADZAI                1000000000001502               
0000000000000000-              NADLENE BINTI RAZALI                    5000000000001505               
0000000000000000-              NORAINI BINTI MOHD NOOR                 1000000000001506               
0000000000000000-              HASLIZA BINTI MOHAMED                   5000000000001507               
0110101000025880-              HARULRIZAM BIN MOHAMED @ GHAZALI        1000000000001510               
0000000000000000A   2531626    AZHAR BIN ISMAIL                        1000000000001511               
0000000000000000-              MOHAMAD RASHID BIN JANTAN               5000000000001520               
0000000000000000-              NORAZAH BINTI MOHAMED YAZID             5000000000001522               
0000000000000000-              NOR HANIZAH BINTI SAPUAN                2000000000001523               
0630501038108562-              NUR HIDAYAH BINTI MUSTAFAH              1500000000001536               
0000000000000000-              ALIHANAFIAH BIN ISMAIL                  1000000000001546               
0630502037559553-              MUHAMMAD REDZUAN BIN MASIJAN            1500000000001549               
0000000000000000-              MOHD RIF'AN BIN ABDUL RAHMAN            1800000000001550               
0000000000000000-              ASNOR HADI BIN AZIAN                    1000000000001551               
0000000000000000-              HAIRUL BIN ANWAR                        5000000000001556               
0000000000000000-              SUZANA BINTI LAZIM                      1500000000001565               
0630501012077700-              NOOR SHAHIDA BINTI MOHD KASIM           4000000000001566               
0000000000000000-              SUHAIMI BIN OMAR                        1000000000001567               
0000000000000000-              SITI ROSMANIZA BINTI AB RASHID          1000000000001570               
0000000000000000-              MOHD SHAFARIM BIN MOHD SAID             2000000000001571               
0630501061785073-              NORLIZA BINTI BABA                      2000000000001572               
0000000000000000-              SHAZLEY BIN SAHIBUDDIN                  1000000000001581               
0630501036473189A   3274152    NORMALISZA BINTI MUSTAPA                3500000000001582               
0630501039116021-              MOHD KHAIRUL IZAM BIN HARUN             1000000000001587               
0080101000211362-              AZIANA BINTI M BAHRIM                   4000000000001590               
0630502031833783-              NOR HIDAYAH BINTI RAHIM                 5000000000001595               
0000000000000000-              NUR ZAWANI BINTI SAHARUDDIN             1210000000001596               
0000000000000000-              SITI MARZIANA BINTI SARIF               7000000000001601               
0080301000271004-              HADIBAH BINTI TAHIR                     2000000000001602               
0000000000000000-              IRDA BINTI ROSLAN                       2000000000001604               
0080101000549589A   2416351    MOHAMAD LUTFI BIN DOLHALIT              3000000000001608               
0080501000144268D              NURUL AFIZA BINTI BAHARI                2600000000001612               
0630501011951477-              ROSMIZA BINTI MOHD SAAD                 3000000000001613               
0000000000000000-              AZRUL SYAFIQ BIN MAZLAN                 5000000000001614               
030501010282252 -              NURDIYANA BINTI SAMSUDIN                3000000000001620               
0630502032512759-              MUHAMMAD AKMAL BIN ABD SHUKOR           2000000000001630               
0080501000027163-              MOHD HANAFIAH BIN MOHD ISA              1400000000001636               
0080501000179606-              MOHD AMIRUL ANUAR BIN ABD RAZAK         1000000000001642               
0000000000000000-              KHAIRUL AZHA BIN A AZIZ                 5000000000001648               
0630501010308020-              NUR ILYANA BINTI ANWAR APANDI           5000000000001651               
0630501060491249-              NUR ZAFIQAH BINTI MOHD ZIN              3100000000001654               
0000000000000000-              NURUL HUSNA BINTI HAMZAH                5000000000001658               
0000000000000000-              NOORAZLINA BINTI YUSOP                  2000000000001663               
0061301000074859-              SUHAILA BINTI MOHD YUSOF                5000000000001664               
0630501008676495-              NURAINI BINTI ZAKARIAH                  2000000000001667               
0000000000000000-              AZIRA BINTI AZIS                        1500000000001670               
0000000000000000-              UMMI RABAAH BINTI HASHIM                2000000000001678               
0000000000000000-              MUHAMAD FIRDAUS BIN MAZLI               3000000000001681               
0000000000000000-              ABDUL RAHMAN BIN SALLEH                 3000000000001691               
0080501000052096-              JOHAR AKBAR BIN MOHAMAT GANI            2000000000001694               
0000000000000000-              ZUL ATFYI FAUZAN BIN MOHAMMED NAPIAH    2000000000001697               
0000000000000000-              AFIFAH MAHERAN BINTI ABDUL HAMID        4000000000001699               
0000000000000000-              IMRAN BIN SUTAN CHAIRUL                 5000000000001700               
0630501017883964-              FAKRULRADZI BIN IDRIS                   1500000000001701               
0630501045169401A   3513186    ZAMANI BIN MD. SANI                     2000000000001708               
0805010000138948-              FADHILAH BINTI SHIKH ANUAR              1500000000001710               
0630502013188478-              NURUL FATIHA BINTI JOHAN                4000000000001715               
0000000000000000-              NURSABILLILAH BINTI MOHD ALI            1200000000001716               
0000000000000000-              SYAHAR AZALIA BINTI AB SHUKOR           8000000000001718               
0130501000291253-              SITI FATIMAH BINTI SULAIMAN             1200000000001723               
0630501039976224-              MASTURA BINTI MOHAMMAD TAHA             3000000000001724               
0101201000023765-              NORLEZAH BINTI HASHIM                   5000000000001725               
0030201000051177-              HAMZAH ASYRANI BIN SULAIMAN             3000000000001726               
0630502036494966-              NUR HAZAHSHA BINTI SHAMSUDIN            1300000000001731               
0080101000488068-              HASRUL 'NISHAM BIN ROSLY                1000000000001732               
0000000000000000-              NURUL HILWA BINTI MOHD ZINI             7000000000001733               
0080501000090900-              MOHD SAAD BIN HAMID                     3000000000001734               
0804010000444433-              TOIBAH BINTI ABD RAHIM                  1600000000001736               
0000000000000000-              AL AMIN BIN MOHAMED SULTAN              1100000000001740               
0040101000071597-              SITI HALMA BINTI JOHARI                 2000000000001744               
0000000000000000A   3779797    NURMAZWATI BINTI ABDUL WAHAB            1000000000001745               
0630502017974615-              FAUZAL NAIM BIN ZOHEDI                  5000000000001746               
0080501000130570-              MOHD FAIZAL BIN HALIM                   1000000000001749               
0080501000139478-              MOHD FAUZI BIN AB RAHMAN                6000000000001750               
0630501012126354-              SARNI SUHAILA BT RAHIM                  1050000000001756               
0630501015326625-              MUHAMAD SYAHMI BIN AYOB                 5000000000001762               
0000000000000000-              SUZITA BINTI YUSUF                      4000000000001763               
0080101000175852-              ANAS BIN ABDUL LATIFF                   1500000000001768               
0000000000000000-              NURUL ZARIRAH BINTI NIZAM               1000000000001775               
0630502008586243-              NORHAZWANI BINTI MD YUNOS               2100000000001776               
0080301000074671-              NORBAYAH BINTI YUSOP                    5000000000001778               
0630501040179395-              IDA SYAFIZA BINTI MD ISA                2300000000001779               
0000000000000000-              MOHD NAJWAN BIN MD KHAMBARI             5000000000001783               
0080101000175864-              NOR AZLAN BIN MOHD ARIS                 1000000000001784               
0000000000000000-              NIDZAMUDDIN BIN MD. YUSOF               1000000000001785               
0630501008151650-              NUR LATIF AZYZE BIN MOHD SHAARI AZYZE   1100000000001786               
0000000000000000-              MOHAMAD RIZAL BIN MOHAMAD DERUS         5000000000001788               
0080101000175837-              ADIB BIN OTHMAN                         1000000000001790               
0000000000000000-              NOORHAIZAH BT IBRAHIM                   6000000000001791               
0100901000002765-              ARFAH BINTI AHMAD                       1000000000001792               
0000000000000000-              NUSAIBAH BINTI MANSOR                   7000000000001794               
0630501045147551A   3274756    MOHD NIZAM BIN BIDIN                    3000000000001798               
0000000000000000-              MOHD NOOR ASRIL BIN SAADUN              1150000000001801               
0000000000000000-              AHMAD FARHAN BIN JAMALUDIN              5000000000001803               
0090401000037752-              NETTY MUHALIZZA BINTI MOHD FADZIL       1000000000001804               
0080101000357905-              ZAINI BINTI FADZULLAH                   2500000000001806               
0630501015366715-              MOHD HAIRULL BIN ABDOLAH                7000000000001811               
0000000000000000-              SITI AZURA BINTI AHMAD TARUSAN          1000000000001812               
0080501000025379I    392327    MUHAMMAD AKMAL BIN MAD YATIM            3000000000001814               
0060301000110098-              SITI AMANIAH BT MOHD CHACHULI           2000000000001817               
0000000000000000-              MUHAMMAD ZAIDAN BIN ABDUL MANAF         1500000000001820               
0000000000000000-              MOHD ZARLIZAN BIN ZAKARIA               3000000000001821               
0630502016756282-              NURLIYANA BINTI ABD. MUTALIB            7000000000001824               
0000000000000000-              SHAHRIZAN BIN ABDULLAH                  1000000000001840               
0101101000020813-              NOR IZWAN BIN JUNOH                     2000000000001848               
0000000000000000-              LIZAWATI BINTI SALAHUDDIN               8500000000001851               
0630501007664483A   3238462    BADROLHISAM BIN HARUN                   2900000000001852               
0080101000358005-              KHAIRUL ANWAR BIN ABDUL TAHRIM          2000000000001854               
0630501012147575A   3510285    NOR ZALIPAH BTE SULIMAN                 2500000000001858               
0630501016240894-              MUKHIFFUN BIN MUKAPIT                   2000000000001868               
0120401000434575-              MARIANA BINTI MOHD AMIN                 6000000000001872               
0000000000000000-              AINE IZZATI BINTI TARMIZI               1400000000001874               
0000000000000000-              NORSUHADA BINTI MANSOR                  1000000000001875               
0080301000299063-              NORHASANAH BINTI ZAINAL                 1000000000001879               
0080101000435249-              AZMIN FADLI BIN MAHYUDDIN               2000000000001887               
06305020104127880             NUR MAISARAH BT MOHD SOBRAN             5000000000001890               
0101101000002219-              SUZIANA BINTI AHMAD                     1000000000001891               
0000000000000000T   IADA       NUR QAMAR BINTI MAHAROFF                1000000000001894               
0080101000016113-              MOHD. FARID BIN ISMAIL                  7000000000001896               
0000000000000000-              MOHD SUFIAN BIN ABU TALIB               5000000000001898               
0000000000000000-              SITI SARAH BINTI BUJANG                 3000000000001899               
0000000000000000-              MOHAMAD FANI BIN SULAIMA                1000000000001901               
0000000000000000A   1065033    AHMAD NIZAM BIN JAMALUDIN               5000000000001902               
0080501000077275-              NURHIDAYAH BINTI ABDUL BAREED           2000000000001903               
0000000000000000-              RAFIDAH BINTI AB.KASIM                  6000000000001904               
0008040100046633-              NAZRI BIN BAKAR                         1000000000001915               
0630501051954802-              NORIZAN BINTI MAT DAUT                  3000000000001923               
0010040100092250-              MOHD YUSZAH BIN JAILANI                 2500000000001928               
0000000000000000-              IEZWAN BIN SABTU                        4500000000001932               
0060901000084159-              NORSURIA BINTI AZIS                     1000000000001933               
0000000000000000-              MUSZAFAR BIN AHMAD                      5000000000001942               
0000000000000000-              SAFINA BINTI ADERIS                     1900000000001954               
0000000000000000-              RADI HUSIN BIN RAMLEE                   1500000000001956               
0000000000000000-              SYAMILAH BT MOHD ALI                    1000000000001959               
0000000000000000A   3782772    BAHATIAR BIN ZAID                       6000000000001962               
0000000000000000A   3744398    HASNORIZAL BIN HAIRUDDIN                3250000000001963               
0000000000000000A   3683406    MD JANUAR BIN MD JANI                   1000000000001964               
0630502012143604-              MUHAMAD FAIRUZD BIN NAHARUDIN           2000000000001966               
0000000000000000-              MOHD HAFIDZAL BIN MOHD HANAFI           1200000000001976               
0000000000000000-              AZIZI BIN ABD RASID                     3000000000001986               
0630501038544874A   3154050    AB. HAMID BIN AZIZ                      1000000000001990               
0000000000000000-              ATIKAH BINTI RAZI                       5900000000001998               
0000000000000000-              MUHAMMAD FAIRUZ BIN ABU BAKAR           3000000000002000               
0009071000197722-              NUR JANNAH BINTI HASIMI                 1000000000002008               
0000000000000000-              NURFADHLIYANA BINTI ROSLI               5000000000002011               
0000000000000000-              MOHSIN BIN KAMARUZAMAN                  2000000000002012               
0080201000165153-              SYALWANIE BINTI MOHAMAD ROZI            1000000000002020               
0630501057456798-              MUHAMMAD RAIHAAN BIN KAMARUDIN          1000000000002021               
0000000000000000-              NUR ASMIZA BINTI SELAMAT                1650000000002025               
0000000000000000-              MOHD SYAIRAZI BIN RAZALI                3000000000002030               
0080101000551407-              ERNA NOORBAIZURA BINTI ZAIDAN           5000000000002036               
0130301000321909-              MAZLAN B. MAMAT @ AWANG MAT             3500000000002041               
0000000000000000-              MUNIRAH BINTI ZAINAL                    1100000000002044               
0000000000000000-              NORASHIDAH BINTI TAJUDDIN               1500000000002045               
0630501016744403-              ANUARRUDIN BIN MD SOOM                  6000000000002046               
0000000000000000-              ARFAH SYAHIDA BINTI MOHD NOR            2500000000002047               
0000000000000000-              EZREEN FARINA BINTI SHAIR               1000000000002050               
0000000000000000-              YANG SARINAH BINTI MOHD TALIB           3500000000002052               
0630501011078123-              AMIZA BINTI HJ. TALIB                   7000000000002053               
0000000000000000-              ADIBAH HANEEM BINTI MOHAMAD DOM         7000000000002055               
0000000000000000-              MAS HASLINDA BINTI MOHAMAD              4250000000002062               
0000000000000000-              'AZHAM FIDA'IY BIN AZKAR                3000000000002063               
0630501031825036-              ELIYANA BINTI RUSLAN                    2000000000002067               
0000000000000000-              ALIAS SUKRI BIN KHAIRUDIN               1000000000002068               
0000000000000000-              NASLINDA BINTI NASARI                   3400000000002069               
0000000000000000-              RAMLAN BIN LATIP                        5000000000002071               
0000000000000000-              FARAH FARHANAH BINTI MD LANI            1000000000002085               
0000000000000000-              AIMI NAZIHAH BINTI MD YUSOH             2000000000002087               
0000000000000000-              MADIHAH BINTI DAUD                      3000000000002089               
0630501060815839-              MOHAMMAD TAUFIK BIN OSMAN               1000000000002091               
0000000000000000-              ZULRIDAH BINTI ZULKEFLE                 1000000000002093               
0120401000003239-              SITI NURJANNAH BINTI AHMAD              7000000000002096               
0000000000000000-              ZAINAL BIN BAHARIM                      2750000000002098               
0000000000000000T   IADA       ZAID BIN ABDULLAH                       1000000000002111               
0000000000000000T   IADA       ADZILAWATI BINTI MOHD SAID              4000000000002113               
0080301000293072-              MOHD RAZIF BIN DZULKIPLI                2000000000002115               
0080601000094558-              NADIAH BINTI ZAINAL ABIDIN              6000000000002119               
0000000000000000A   0936867    EFFENDY ONN BIN SIAM                    2000000000002123               
0630501035587602-              NURUL WIRDAH BINTI MAFAZI               5000000000002128               
0080301000293084-              MEZ ZELINA BINTI YUSOF                  2000000000002129               
0110201000007220T   IADA       NOR LAILATUL AZILAH BINTI HAMDZAH       1800000000002132               
0120201000248021-              CHE WAN MOHD FAIZAL BIN CHE WAN MOHD ZAL1000000000002138               
0000000000000000-              MOHD FA'IZ BIN WAHID                    1000000000002147               
0630501011987032-              NUZAIMAH BTE MUSTAFA                    1500000000002149               
0000000000000000-              MUHAMAD FAIZAL BIN MAZLI                3000000000002166               
0000000000000000-              MOHD AZAM BIN ABDULLAH                  1800000000002170               
0000000000000000-              MUHAMMAD ZULFATTAH BIN ZAKARIA          1000000000002173               
0630501006908837A   0670255    FADZILAH BINTI SALIM                    2000000000002174               
0630501005442771A   0983816    NURULHALIM BIN HASSIM                   5000000000002188               
0000000000000000-              NUR IZYAN BINTI ZULKAFLI                3000000000002190               
0630502016786868-              HAFIZUL AZLAN BIN ISMAIL                5000000000002193               
0630501018221907-              DAYANASARI BINTI ABDUL HADI             2000000000002195               
0000000000000000A   3572758    TG MOHD FAISAL BIN TENGKU WOOK          2000000000002210               
0000000000000000-              NURUL HANIM BINTI RAZAK                 2500000000002211               
0000000000000000T   1077778    ADNAN BIN SAHNAN                        3000000000002214               
0630501052783723-              FATIMAH BINTI MD. RADZAI                5500000000002240               
0630501019198902-              NAZREEN BINTI WAELEH                    1000000000002251               
0000000000000000-              MUHAMMAD FAREQ BIN IBRAHIM              1500000000002252               
0000000000000000-              TEH FATIMAH SHAM BINTI MOHD ISA         1000000000002262               
0630502008721394-              MOHAMAD RIDZUAN BIN MOHAMAD KAMAL       2500000000002263               
0000000000000000-              MOHD FAIROL BIN AHMAD                   3500000000002272               
0000000000000000-              MOHD KHUWARIZMI BIN MAHAT               2500000000002274               
0630501015711081-              RAJA NOR FIRDAUS KASHFI BIN RAJA OTHMAN 7000000000002285               
0000000000000000-              MOHD KAMAL BIN MUSA                     4000000000002292               
0000000000000000-              ROSZIANA BINTI HASHIM                   1500000000002297               
0000000000000000-              HAIRULIZAN BINTI YACOB                  1500000000002299               
0000000000000000-              AMIRA BINTI ASKAT                       1500000000002308               
0630501060750451-              MUNIRAHWATI BINTI RAMLI                 2000000000002312               
0130401000120870-              MOHD SULHAN BIN MOKHTAR                 1500000000002313               
0000000000000000-              FAREES EZWAN BIN MOHD SANI @ ARIFFIN    2000000000002315               
0630501010293245-              RAEIHAH BINTI MOHD ZAIN                 4900000000002316               
0051001000029932-              SYAHRIZA BT ISMAIL                      1860000000002323               
0630501059415289-              NUR RAFIQAH BINTI ABDUL RAZIF           3000000000002326               
0630501047872456-              ROZAIMI BIN GHAZALI                     6000000000002335               
0061201000818667-              NURUL AIN BINTI MAIDIN                  1000000000002352               
0000000000000000-              NURBAHIRAH BINTI NORDDIN                6500000000002353               
0000000000000000-              WAN HASZERILA BINTI WAN HASSAN          2000000000002365               
0000000000000000-              FADATU SALWA BINTI MUTANI               1500000000002366               
0000000000000000-              NASARUDDIN BIN SEMAN                    5000000000002375               
0000000000000000-              NOOR SAFFREENA BT HAMDAN                4000000000002377               
0000000000000000-              MOHD FARID BIN JOHARI                   1000000000002380               
0000000000000000-              FAKHRULLAH BIN IDRIS                    1000000000002385               
0000000000000000-              MOHAMAD NAZIR BIN MASROM                1000000000002388               
0080101000572996-              AMALIA AIDA BINTI ABD HALIM             3300000000002391               
0630501038682479-              MOHAMED SAIFUL FIRDAUS BIN HUSSIN       7000000000002392               
0630502046579354-              MOHD HARIZ BIN NAIM @ MOHAYAT           1000000000002393               
0000000000000000-              ADDYAZIZI BIN MAT NAWI                  1500000000002396               
0630502041909184-              NUR FARAH BAZILAH BINTI WAKHI ANUAR     5000000000002407               
0000000000000000-              MOHD NAZRI BIN AHMAD                    3000000000002409               
0000000000000000J   243242     WAN NUR WAHIDAH BINTI MAMAT             1500000000002410               
0070501000022127-              MAZRAN BIN AHMAD                        1500000000002411               
0630501031366685-              MUHAMMAD SYAHRANI BIN JOHAL             2000000000002413               
0051501000073721-              HALYANI BINTI MOHD YASSIM               7000000000002416               
0060601000172632-              MUHAMAD FALIHAN BIN BAHARI              1600000000002422               
0000000000000000-              ZULFERAH BINTI ZULKEFLE                 3000000000002436               
0000000000000000-              AMIR ABDULLAH BIN MUHAMAD DAMANHURI     4000000000002443               
0630502049736666-              AINUR FATEHAH BINTI MOHD NOOR           3000000000002448               
0080101000099667-              NOR MOHAMMAD NAZIRUL BIN ZAHARI         1000000000002450               
0630502013285008-              MOHD HIDAYAT BIN AB RAHMAN              1000000000002451               
0000000000000000-              NURUL NAZMIZA BINTI MOHD SEHAT          5000000000002454               
0000000000000000-              MUHAMMAD ILMAN HAKIMI CHUA BIN ABDULLAH 5000000000002461               
0000000000000000-              SITI NUR SUHAILA BINTI MIRIN            5000000000002470               
0000000000000000-              INTAN NAQUIAH FAZRIN BINTI TAZAR AROS   5000000000002471               
0000000000000000A   1749505    MOHAMAD FUZI BIN SAIDIN                 5000000000002475               
0000000000000000-              KHAIRIL AMRI BIN KAMARUZZAMAN           1000000000002480               
0000000000000000-              MOHD FAIZUHAR BIN RAZALI                2000000000002481               
0000000000000000-              ROSNAINI BINTI RAMLI                    3000000000002491               
0000000000000000-              MOHD HAFIZI BIN ABDUL RAHMAN            3500000000002493               
0000000000000000-              MOHAMMAD RAFI BIN OMAR                  1000000000002494               
0000000000000000-              NORSALINA BINTI SOMININ                 2600000000002495               
0000000000000000-              NUR MUHAMAD FIRDAUS BIN NOR AZMAN       1000000000002496               
0000000000000000-              ROZILAWATI BINTI MOHD NOR               8000000000002499               
0000000000000000-              MUHAMMAD IQBAL BIN AMDAN                1000000000002501               
0000000000000000-              S.M.WARUSIA MOHAMED BIN S.M.M YASSIN    1500000000002503               
0000000000000000-              MOHD SAFUAN BIN RAYA                    9000000000002504               
0000000000000000-              NURUL SYAMIMI BINTI NORAZMI             3000000000002506               
0000000000000000-              MOHD HADZREN REDZA BIN NORHIDZAM AMIN AK2000000000002512               
0000000000000000-              KHAIRUL AZRI BIN AZLAN                  1050000000002530               
0000000000000000-              WAN SYAFIDATUL IMA BINTI WAN OMAR       3000000000002533               
0000000000000000-              SUHAILA BINTI MOHD NAJIB                5000000000002539               
0000000000000000-              MUHAMMAD IZZAT ZAKWAN BIN MOHD ZABIDI   5000000000002553               
0080501000156301-              WAN SHAFIQ BIN W AHMAD ZAIKI            5000000000002559               
0000000000000000-              NOOR IZZATI BINTI ABD JALAL             7000000000002576               
0000000000000000-              SITI NUR BAIZURA BINTI AHMAD BUANG      5000000000002586               
0000000000000000-              KHAIRUL AMRI BIN TOFROWAIH              2000000000002594               
0000000000000000-              NUR FADZILAH BINTI OTHMAN               5000000000002595               
0000000000000000-              HARTINI BINTI AZMAN                     1500000000002597               
0000000000000000-              KHAIRUL ANNUAR BIN NORDIN               1500000000002667               
0000000000000000-              IKMAL FAIQ ALBAKRI BIN MUSTAFA ALBAKRI  1000000000002718               
FF001364000005815400000000000000002174493
